:03000000020D0BE3
:0C0D0B00787FE4F6D8FD758142020D529D
:100C6D0088100A0A0A0A0A0A0A0A880800000000FF
:100C7D0000000000012D00013500C106C107012C47
:100C8D000003285A2806880000000000000000001C
:100C9D00C108C109C10A013200013300013400014C
:100CAD002700C103C105013B00013A00013600C117
:100CBD000102230000C10402370000022E000002D1
:100CCD00250000012B00012200043E00000000C1A0
:100CDD000002300000C102013C0001420001390058
:030CED00013D00C6
:10115400438E805389F0438904E4F58AF58CC28D6B
:03116400D28C2208
:10111500538EBF53890F758B18758DFCC28FD28E78
:05112500D2ABD2AF22A5
:10117800538EFB75D73875D6FF438E1043AF0422C4
:100D9700A208E4337800F2A209E43308F2A20AE4D5
:100DA7003308F2A202E43308F2792BE7D3782996C5
:100DB70040047F0180027F007804EFF2A205E4334C
:100DC70008F23002047F0480027F01783AA60730D8
:100DD700050F20030CD203782706E6FDE4FF021077
:0D0DE700CC200508300305782706C2032242
:100F7900783DE670277601120E8C1203427830EE26
:100F8900F6FC08EFF6FD782AE675F00AA4FFD3ED22
:0D0F99009FEC95F04003D38001C392052228
:100B55007839E66003020C6C7601120F4BAC07E4A2
:100B650012030EE4FBFA7920784112015EE4FBFAE8
:100B7500794C78421202671203427822EFF625E09B
:100B8500FF782BF67829E6FBEFD39B500C783E12C5
:100B9500047E3F800000020C57782BE6C39450403A
:100BA5000C783E12047E40A00000020C57EBFF7E3D
:100BB500007C007D051203F0AC06AD07EC120309BD
:100BC500A804A905AA06AB07E4FFFE7DA07C421296
:100BD5000069C004C005C006C0077829E6FFC374D4
:100BE500509FFDE49400FC120309A804A905AA0678
:100BF500AB07D007D006D005D004120267C004C0E9
:100C050005C006C0077829E6FFC374509FFDE4942C
:100C150000FC120309A804A905AA06AB07E4FFFE18
:100C25007D807C40120267C004C005C006C00778FD
:100C35002BE6FCE412030ED003D002D001D0001243
:100C4500015ED003D002D001D00012006D783E12B3
:100C55000472E4FFFE7D4C7C42783E12046512016D
:080C65005E12034212113F224E
:1008A300E4F5087842E66003020A0676017836E644
:1008B300FFC454F0F61210E67836E64FF65411FFF3
:1008C300BF01037508047836E6FF5422FEBE020317
:1008D300750805EF5444FFBF04037508067836E630
:1008E3005488FFBF08037508077835E6B40114BFC1
:1008F3008804D2018002C201300408E4FDFF121013
:10090300CCC204E50824FB60221460341470030293
:1009130009AA24036003020A067835E6045403F6A1
:1009230064026003020A06782CF622782CE624017E
:10093300FFE433FE7C007D03120402782CA605221B
:100943007835E6FFB40202B207EF64036003020ADC
:1009530006782CE6FF146022146037240260030239
:100963000A0674282FF8740526F674282FF8E6D3A0
:1009730094785003020A06760A22782CE6FF24288C
:10098300F8740A26F674282FF8E6D3943C4074765C
:100993000A22782CE6FF2428F80674282FF8E6D3D9
:1009A300940C405F7601227835E6FF7002B206EFC1
:1009B3006403704F782CE6FF14601C14603124022A
:1009C300704174282FF874FB26F674282FF8E6C3B9
:1009D300940A502F767822782CE6FF2428F874F6B0
:1009E30026F674282FF8E6C3940A5017763C22782B
:1009F3002CE6FF2428F81674282FF8E6C394015038
:030A030002760C6C
:010A060022CD
:10056500E4F508783CE660030208A276017835E6F2
:10057500147003020731147003020771147003022B
:100585000841240360030208A27810740CF2087471
:100595000AF2300603020648782EE6FE08E6FFE476
:1005A500FCFD7BA07A867901F8120E487812EFF2ED
:1005B500782EE6FA08E6FB7C277D10FFAE021204D2
:1005C500027C007D0A1204027813EDF27C037DE8BB
:1005D500AF03AE021204027C007D0A1204027814F5
:1005E500EDF2782EE6FA08E6FB7C007D64FFAE02AC
:1005F5001204027C007D0A1204027815EDF27C00DB
:100605007D0AAF03AE021204027C007D0A120402C9
:100615007816EDF2782EE6FE08E6FF7C007D0A12DC
:1006250004027817EDF2E4780EF2750802741025CD
:1006350008F8E260030208A2740AF20508E508B4A6
:1006450008EB22780E7401F2C3782FE6946418E65D
:10065500940050137812740AF208F208F208F2E4D2
:1006650008F208F2020718782EE6FC08E6FDE41207
:100675000309E4FBFA79C87842120267120342784B
:1006850025A60608A60718E6FE08E6FFE4FCFD7B9E
:10069500A07A867901F8120E487812EFF27825E6ED
:1006A500FA08E6FB7C277D10FFAE021204027C00EF
:1006B5007D0A1204027813EDF27C037DE8AF03AEE8
:1006C500021204027C007D0A1204027814EDF2780D
:1006D50025E6FA08E6FB7C007D64FFAE0212040203
:1006E5007C007D0A1204027815EDF27C007D0AAFCC
:1006F50003AE021204027C007D0A1204027816ED94
:10070500F27825E6FE08E6FF7C007D0A12040278F1
:1007150017EDF275080274102508F8E26003020867
:10072500A2740AF20508E508B406EB227810740DE8
:10073500F208740AF208F208F208F2782BE675F06E
:100745006484FF600280027F0A7815EFF2782BE659
:10075500FF75F00A8475F00A847816E5F0F2EF75F6
:10076500F00A8408E5F0F2E4780EF2227810740BB2
:10077500F20814F220077908F208F208F27830E658
:10078500FE08E6FF7C007D64120402EF4E600280E5
:10079500027F0A7815EFF27830E6FA08E6FB7C006E
:1007A5007D64FFAE02120402EF4E700EFC7D0AAFAF
:1007B50003AE02120402EF4E60197830E6FE08E639
:1007C500FF7C007D0A1204027C007D0A120402AF40
:1007D5000580027F0A7816EFF27830E6FE08E6FF1C
:1007E5007C007D0A1204027817EDF2E4780DF222FE
:1007F5007812740AF208F208F27830E6FA08E6FB95
:100805007C007D64FFAE021204027815EFF2780DCC
:100815007401F27C007D0AAF03AE021204027C0073
:100825007D0A1204027816EDF27830E6FE08E6FF3E
:100835007C007D0A1204027817EDF222E4780DF2AD
:100845007810740EF2782CE6FF047811F208740A19
:10085500F208F208F274282FF8E675F0648475F052
:100865000A84AFF0EF600280027F0A7815EFF27814
:100875002CE6FF2428F8E6FE75F00A8475F00A8454
:100885007816E5F0F2EFB401047F0080027F01786D
:0D0895000EEFF2EE75F00A847817E5F0F230
:0108A2002233
:03001B00020A07CF
:100A0700C0E0C0F0C083C082C0D075D000C000C0B5
:100A170001C002C003C004C005C006C007783CE699
:100A270006C3946440027600782DE606C394084016
:100A37000276007842E606C3940A400276007839C7
:100A4700E606C394A040027600783DE606C394A06C
:100A57004002760078370806E61886067001061405
:100A6700C394E8EE94034035C28CAF8CEFAD8A781F
:100A77002EF6ED08F6758A00758C00D28C7828E67C
:100A870075F064A4FFD3782FE69F18E695F040032E
:100A9700D38001C3920278377600087600300118B8
:100AA70078230806E618860670010614C394E8EE54
:100AB7009403400DD204800978237600087600C29B
:100AC700047835E6FF700F7832E606C39464400C6D
:100AD7007600B208800678327600C208EFB4010FBC
:100AE7007833E606C39464400C7600B20980067832
:100AF700337600C2097835E6B4020E18E606C394C9
:100B070064400C7600B20A800678347600C20A7810
:100B17002DE6FF2410F8E2FD782DE62408F8E2FB25
:100B2700120ECE7BFE7A007900120F0DA203920CF3
:100B3700120FD2D007D006D005D004D003D002D0F0
:0E0B470001D000D0D0D082D083D0F0D0E032E8
:03006300020DF497
:100DF400C0E0C0F0C083C082C0D075D000C000C0C5
:100E040001C002C003C004C005C006C007783B0689
:100E1400E6C3940540027600793BE7D3783A9650CE
:100E2400028001C3920D121018D007D006D005D04D
:100E340004D003D002D001D000D0D0D082D083D04F
:040E4400F0D0E032D8
:10103B0012115412111512002612112A12117812C4
:10104B000D971208A3120565120B55120F7980EF3D
:090CF000010E00010DFF010C00D2
:060F0D008B098A0A890B22
:100F1300E4FFFEAB09AA0AA90B8E827583001203B4
:100F2300C3FDA806088002C333D8FC42070EBE08DF
:100F3300E2EF650C6011EFF4F580E5A0541F4480E7
:070F4300F5A053A01F8F0C65
:010F4A002284
:100FD200300C05430D108003530DEFE50D650E60D7
:100FE20011850D80E5A0541F44A0F5A053A01F85D4
:030FF2000D0E22BF
:100FF500300B05430D408003530DBFE50D650E60B5
:1010050011850D80E5A0541F44A0F5A053A01F85B0
:031015000D0E229B
:10101800300D05430D208003530DDFE50D650E608F
:1010280011850D80E5A0541F44A0F5A053A01F858D
:031038000D0E2278
:100026007580FFE5A0541F4480F5A053A01FC20BA6
:10003600120FF5C20C120FD2C20D1210187580FFE6
:10004600E5A0541F44C0F5A053A01F7580FFE5A08E
:0A005600541F44E0F5A053A01F2240
:1010E600E4FF20B3010F20B20343070220B10343FC
:0810F600070420B003430708C2
:0110FE0022CF
:100CF9008F18C0F9A4B0999282F88090FF888E89E4
:010D09008C5D
:100ECE007580FFE5A0541F44E0F5A053A01FA807AE
:100EDE007401088002C333D8FCF580E5A0541F448A
:100EEE00C0F5A053A01F74182DF8E2F580EB600337
:0F0EFE0053807FE5A0541F44E0F5A053A01F22AE
:0300230002119730
:0B119700309902C299309802C29832D1
:10112A00759850438E01538EFB75D7E675D6FF43EB
:05113A008E10D2AC2272
:0811AB008F993099FDC29922D1
:0811B3008F993099FDC29922C9
:0410B200D2A07F0544
:1010B600000000000000000000000000000000AE7C
:0610C600071FEE70EB2293
:0F118800D2A11210B2C2A17F051210B6C2A022CE
:0A10FF0012105BAD077F0112000321
:0C110900C2A11210B2D2A17F050210B6E4
:020FA600AD0795
:100FA800E4FCC2A07F051210B6ED30E704D2A180A0
:100FB80002C2A17F051210B6D2A0ED25E0FD7F0583
:090FC8001210B60CBC08DBC2A03B
:010FD10022FD
:10105B00E4FC1210B2ED25E0FD30A103430501C203
:0C106B00A07F051210B60CBC08E8AF0511
:011077002256
:0B107800120FA6121083AF03120FA688
:101083001210B2A2A1E433FDC2A07F051210B6AFC5
:011093000557
:011094002239
:10000300C2A0EF24FF92A17F051210B61210B2C254
:08001300A0D2A17F050210B686
:100F4B00E4FD1211887F90120FA61210837F4312BB
:100F5B000FA61210831211887F91120FA612108305
:0D0F6B0012105BE4FF1200031210FFAF052F
:010F78002256
:10113F00AB071211887F90120FA61210837F4312F4
:05114F001078021109F7
:02109500AB07A7
:10109700E4FD1211887FA01210781211887FA11227
:0A10A7000FA61210831210FFAF0510
:0110B100221C
:0811A2007F757EB8DEFEDFFC64
:0111AA002222
:1010CC00AB05AA071211887FA0120FA6121083AFCE
:0A10DC00021210781211090211A28D
:0611BB0000007F21DFFEB1
:0111C100220B
:10116700E4FED2901211BBC2901211BB0EBE08F260
:011177002255
:100E8C00E4FDFCF5D9C2DEC2DFF5E9F5F912116714
:100E9C00D2DE20DF032091FAC2DE20DF1DAFF9EF96
:100EAC00ADE9FCE4F5E9F5F9AE04AF051203097BF5
:100EBC00967A43798B783C02015EC2DFE4FFFEFD3B
:010ECC00FC29
:010ECD002202
:100066000203AEE86480F8E933E83360110460F017
:10007600ED33EC337009E8FCE9FDEAFEEBFF220400
:1000860060DED3EB9FEA9EE99DE8C2E78CF0C2F7FB
:1000960095F0400CE8CCF8E9CDF9EACEFAEBCFFBC7
:1000A60012037985D0F05804700320D5B3E80470A4
:1000B600075002B2D50203B892D5EC0460F7E4CC3F
:1000C600C0E0C398F8603B94186008400DD0E0FB90
:1000D600020390E4FBFAC9FC8028E830E406E4C990
:1000E600FBE4CAFCE830E305E4C9CACBFCE85407E4
:1000F6006010F8C3E913F9EA13FAEB13FBEC13FCEF
:10010600D8F130F52FC3E49CFCEF9BFFEE9AFEED91
:1001160099FDD0E0FBEF4E4D4C701222DB0302033B
:10012600B5EC2CFCEF33FFEE33FEED33FDED30E79F
:10013600EB020390EF2BFFEE3AFEED39FDD0E0FB2C
:1001460050130BBB00030203B8ED13FDEE13FEEFD5
:0801560013FFEC13FC020390FF
:10015E00EC4D6011E8497017ED33EC3304600DE49B
:10016E00FCFFFEFD22E933E8330470F80203AE1201
:10017E00037958046009E4CC248150062850090202
:10018E0003B82840030203B5C0E0EB4A7044B980BF
:10019E0006D0E0FB0203A4EF4E701CBD8008EBFFFF
:1001AE00EAFEE9FD80EBE98DF0A4FEE5F0020247E0
:1001BE00E9CDF9EAFEEBFFEF89F0A4FCE5F0CE897C
:1001CE00F0A42EFFE435F0CD89F0A42DFEE435F039
:1001DE008067EF4E7005BD80D780C3EF8BF0A4AC67
:1001EE00F0EE8BF0A42CFCE435F0F8EF8AF0A42CA2
:1001FE00E5F038FCE433CB8DF0A42CFCE5F03BF8B5
:10020E00EE8AF0A42CFCE5F038F8E433CF89F0A4A4
:10021E002CFCE5F038CF3400CE89F0A42FFFE5F0AA
:10022E003EFEE433C98DF0A42EFEE5F039CD8AF002
:10023E00A42FFFE5F03EFEE43DFD33D0E0FB50077A
:10024E000BBB000F0203B8EC2CFCEF33FFEE33FEBA
:06025E00ED33FD020390E8
:100264000203B8EC5D046005E8590470030203AEB0
:10027400120379580460F6EC4860F2EC7004FDFE59
:10028400FF22C860DB2481C85009C398600250066D
:100294000203B59850CAF582E9294B4A7005AB822E
:1002A4000203A475F0007C1A7880C3EF9BEE9AEDEC
:1002B40099400DC3EF9BFFEE9AFEED99FDE842F0E5
:1002C400DC23ACF0D0E0FFD0E0FED0E0FDAB822038
:1002D400E7101BEB60BAEC2CFCEF33FFEE33FEEDC2
:1002E40033FD020390E803F830E705C0F075F00031
:1002F400EF2FFFEE33FEED33FD40B830E7C280AAA6
:1003040075F020800E75F010800575F0087D007E74
:10031400007F003392D530D503120457EC334010DC
:10032400EF33FFEE33FEED33FDEC33FCD5F0ED227D
:0E033400E5F0247EA2D513CC92E7CDCEFF22B9
:10034200EDD2E7CD33EC3392D524814006E4FFFEB3
:10035200FDFC22FCE4CFCECDCC24E0501174FF8012
:10036200EDC3CC13CCCD13CDCE13CECF13CF0470AF
:07037200F030D5DE02045754
:10037900E9D2E7C933E833F892D5EDD2E7CD33ECCA
:0703890033FC5002B2D52243
:10039000EC30E7100FBF000C0EBE00080DBD0004CE
:1003A0000BEB6014A2D5EB13FCED92E7FD2274FF7A
:1003B000FCFDFEFF22E480F8A2D574FF13FC7D80D3
:0303C000E480EFE7
:100D170002103BE493A3F8E493A34003F68001F2A7
:100D270008DFF48029E493A3F85407240CC8C333DD
:100D3700C4540F4420C8834004F456800146F6DFAC
:100D4700E4800B0102040810204080900C6DE47EC3
:100D5700019360BCA3FF543F30E509541FFEE493A1
:100D6700A360010ECF54C025E060A840B8E493A368
:100D7700FAE493A3F8E493A3C8C582C8CAC583CA93
:100D8700F0A3C8C582C8CAC583CADFE9DEE780BE4B
:010D0A0000E8
:1003C300BB010CE58229F582E5833AF583E02250EF
:1003D30006E92582F8E622BBFE06E92582F8E22239
:0D03E300E58229F582E5833AF583E4932253
:1003F000EF8DF0A4A8F0CF8CF0A428CE8DF0A42E21
:02040000FE22DA
:10040200BC000BBE0029EF8DF084FFADF022E4CCDE
:10041200F875F008EF2FFFEE33FEEC33FCEE9DECA7
:10042200984005FCEE9DFE0FD5F0E9E4CEFD22EDED
:10043200F8F5F0EE8420D21CFEADF075F008EF2F37
:10044200FFED33FD4007985006D5F0F222C398FD28
:050452000FD5F0EA22C5
:100E4800C2D5E830E70FB2D5E4C39BFBE49AFAE4D5
:100E580099F9E498F8EC30E717B2D5120E7E12042F
:100E6800D3E4C39BFBE49AFAE499F9E498F8800385
:100E78001204D330D50DE4C39FFFE49EFEE49DFD2C
:040E8800E49CFC22C8
:0E045700C3E49FFFE49EFEE49DFDE49CFC22B6
:0D046500E6FB08E6F908E6FA08E6CBF82207
:0C047200ECF608EDF608EEF608EFF622B6
:10047E00D083D082E493F608740193F60874029345
:09048E00F608740393F67404737C
:1004970075F008758200EF2FFFEE33FECD33CDCC1C
:1004A70033CCC58233C5829BED9AEC99E58298409F
:1004B7000CF582EE9BFEED9AFDEC99FC0FD5F0D67C
:1004C700E4CEFBE4CDFAE4CCF9A88222B800C1B9A6
:1004D7000059BA002DEC8BF084CFCECDFCE5F0CBE4
:1004E700F97818EF2FFFEE33FEED33FDEC33FCEB1D
:1004F70033FB10D703994004EB99FB0FD8E5E4F9D8
:10050700FA227818EF2FFFEE33FEED33FDEC33FCC4
:10051700C933C910D7059BE99A4007EC9BFCE99AB8
:10052700F90FD8E0E4C9FAE4CCFB2275F010EF2FFD
:10053700FFEE33FEED33FDCC33CCC833C810D707FD
:100547009BEC9AE899400AED9BFDEC9AFCE899F838
:0E0557000FD5F0DAE4CDFBE4CCFAE4C8F922CB
:00000001FF
