:0300000002000EED
:0C000E00787FE4F6D8FD758120020055D3
:1001F30001190088100A0A0A0A0A0A0A0A8808006A
:1002030000000000000000011A0088000000000048
:0D02130000000000011B00011C00011D0087
:1003C700438E805389F0758A20758CD1C28DD28C6B
:0503D700D2A9D2AF2203
:10032600781CE67022781C7601781AE614600D14A3
:1003360060102402701178107401F2227810740291
:08034600F22278107403F22288
:10011500E4F513781DE6704F781D7601781BE6FF30
:10012500C454F0F61202FD781BE64FF65411FFBFDA
:10013500100375130C781BE6FF5422FEBE200375D1
:10014500130DEF5444FFBF4003751310781BE6549D
:1001550088FFBF8003751311E513B40C0A781A06DE
:07016500E675F00384A6F02B
:01016C002270
:03000B0002009A56
:10009A00C0E0C0F0C083C082C0D075D000C000C02C
:1000AA0001C002C003C004C005C006C00778190613
:1000BA00781C0608067819E6C39408400276007888
:1000CA001CE6C3945A40027600781DE6C3940A409F
:1000DA000276007819E6FF2410F8E2FD7819E62482
:1000EA0008F8E2FB12016D7BFE7A0079001201B278
:1000FA00D007D006D005D004D003D002D001D0005A
:0B010A00D0D0D082D083D0F0D0E03203
:1003F0001202681203C778007401F2120326120178
:030400001580F86C
:03022000011800C2
:100268007580FF7F04120231E4FF1202317580AFFE
:100278007F05120231E4FF1202317580FF7F0612FA
:100288000231E4FF1202317580FF7F07120231E468
:04029800FF0202312E
:0601B2008B148A1589166A
:1001B800E4F517FFAB14AA15A9168F8275830012F0
:1001C80002D0FEA807088002C333D8FC42170FBF2D
:1001D80008E2E51765186012E517F4F5807F041248
:0A01E8000231E4FF120231851718FE
:0101F20022EA
:0B041600300004438010225380EF22CE
:0D0223000B08C0F9A4B0999282F88090FFFA
:10016D008F148D158B167580FF7F07120231E4FFFA
:10017D00120231AF147401A807088002C333D8FCF2
:10018D00F5807F06120231E4FF1202317408251545
:10019D00F8E6F580E516600353807F7F0712023184
:0501AD00E4FF02023135
:1002FD00E4FFD2B3D2B2D2B4D2B5C2B520B3010F9E
:10030D0020B203430702D2B5C2B420B3034307049E
:08031D0020B203430708D2B42B
:0103250022B5
:10023100EF24FB601314601914601F24037024E57C
:10024100A0541F4480F5A022E5A0541F44A0F5A0AE
:1002510022E5A0541F44C0F5A022E5A0541F44E0AC
:07026100F5A02253A01F22AB
:10040300E4FEC297EF1392A3EFC313FFD2970EBE7E
:0204130008F0EF
:0104150022C4
:1003DC00C29300C29700D29300120403AF0512041B
:0403EC0003C2932293
:10029C00E4FDC29300C29700D29300120403E4FF62
:1002AC00C297EDC313FD30A303430580D2970FBF54
:1002BC0008EEC29300C29700D29700C2A300D2A34B
:0302CC0000AF057B
:0102CF00220C
:040393007F057E0064
:10039700EF1FAA0670011E4A600BE4FDEDC3940C23
:0503A70050EE0D80F78F
:0103AC00222E
:02037500A907D6
:10037700E4FBC294E9139294120393D294E9C31352
:0C038700F90BBB08ED7F057E0002039718
:1003AD00E4FBC294ECC313FCD29430940343048059
:0903BD001203930BBB08EBAF0423
:0103C6002214
:10034E00C201D2947F0C7E00120397C2947F507E1E
:10035E0000120397D2947F0A7E00120397A2949202
:06036E0001120393A2013D
:010374002266
:10001A000203F0E493A3F8E493A34003F68001F209
:10002A0008DFF48029E493A3F85407240CC8C333E7
:10003A00C4540F4420C8834004F456800146F6DFB6
:10004A00E4800B01020408102040809001F3E47E52
:10005A00019360BCA3FF543F30E509541FFEE493AB
:10006A00A360010ECF54C025E060A840B8E493A372
:10007A00FAE493A3F8E493A3C8C582C8CAC583CA9D
:10008A00F0A3C8C582C8CAC583CADFE9DEE780BE55
:0102300000CD
:1002D000BB010CE58229F582E5833AF583E02250E3
:1002E00006E92582F8E622BBFE06E92582F8E2222D
:0D02F000E58229F582E5833AF583E4932247
:00000001FF
