:030000000205D224
:0C05D200787FE4F6D8FD7581320206192E
:10065E00012A0088100A0A0A0A0A0A0A0A880800E9
:10066E0000000000000000012B00880000000000C8
:10067E0000000000C101C10502250000C102C10435
:10068E00022C0000012100012E00C10302270000F0
:10069E0001291703220C3B32C10001310001320047
:0606AE00012F00013000E5
:100A4E00438E805389F0758A20758CD1C28DD28CDD
:050A5E00D2A9D2AF2275
:100A6300782FE6700D782F76017B007A00792212B9
:030A730007BE2299
:10091B00E4FFFE7830E6702478307601120844E468
:10092B00FBFA7920784112000E1201F2D3EF9420DA
:0C093B00EE940350077827A60608A607D4
:01094700228D
:1006CA007823E6FF700A08E67006D202780004F280
:1006DA00300019E47801F2EF70077824E67002D24C
:1006EA0005300504D2018021C201801D7801740100
:1006FA00F27829E675F00AA4FFC318E69F18E69572
:10070A00F04004D2018002C201300106A204E4339F
:0D071A008001E47802F2A201920602099823
:100350007831E6600302044678317601782BE614A2
:10036000606114700302041F2402600302044678D3
:1003700010740BF2087401F208740AF208F208F221
:100380007827E6FA08E6FB7C007D64FFAE021202E5
:10039000ED7815EFF27C007D0AAF03AE021202ED9C
:1003A0007C007D0A1202ED7816EDF2780E7401F2EF
:1003B0007827E6FE08E6FF7C007D0A1202ED78173A
:1003C000EDF2227810740BF2087402F208740AF24B
:1003D00030031C7823E6FF75F00A847813F2EF757A
:1003E000F00A8408E5F0F208740CF27824801A7898
:1003F00022E6FF75F00A847813F2EF75F00A84089C
:10040000E5F0F208740CF27823E6FF75F00A8478C0
:1004100016F2E4780EF2EF75F00A847817802478EB
:1004200010740BF2087403F208740AF208F208F26E
:1004300008F27829E6FF75F00A847816F2EF75F075
:070440000A8408E5F0F22236
:10053C00E4F5157832E660030205D178327601785D
:10054C002EE6FFC454F0F6120948782EE64FF65406
:10055C0011FFBF100375150C782EE6FF5422FEBE5A
:10056C00200375150DEF5444FFBF4003751510782B
:10057C002EE65488FFBF8005751511C203BF080213
:10058C00D203E51524F3601624FD601514602524B0
:10059C00057032782B06E675F00384A6F022B200C3
:1005AC0022782BE66402701D782906E6C3945A4023
:1005BC0014766322782BE6B4020B782916E6D394D2
:0505CC000A5002760A4E
:0105D1002207
:03000B00020447A5
:10044700C0E0C0F0C083C082C0D075D000C000C07B
:1004570001C002C003C004C005C006C007782A0651
:100467007831060806782F060806782AE6C3940826
:10047700400276007831E6C3945A4002760078321B
:10048700E6C3940A40027600782FE6C394A04002A0
:1004970076007830E6C394A04002760030022678D2
:1004A7002D06E618700106C3782DE6948818E694A1
:1004B7001340127800E4F2300002C201C202782C25
:1004C7007600087600300518782606E618700106CB
:1004D700C37826E6948818E69413400BC205800279
:1004E7007825760008760030010F782106E6C39458
:1004F70064400AB2047600800478217600782AE600
:10050700FF2410F8E2FD782AE62408F8E2FB120738
:10051700797BFE7A007900120803D007D006D00550
:10052700D004D003D002D001D000D0D0D082D08365
:05053700D0F0D0E0321D
:1009BD001208B3120A4E7B007A0079221207271211
:1009CD00084412035012053C12091B120A63120649
:0309DD00CA80EFDE
:0606B400011A00011B0009
:1008B3007580FF7F0412087CE4FF12087C7580AF0B
:1008C3007F0512087CE4FF12087C7580FF7F061207
:1008D300087CE4FF12087C7580FF7F0712087CE424
:0408E300FF02087C8C
:060803008B168A1789180C
:10080900E4F519FFAB16AA17A9188F827583001290
:10081900028CFEA807088002C333D8FC42190FBF17
:1008290008E2E519651A6012E519F4F5807F0412EA
:0A083900087CE4FF12087C85191A00
:010843002292
:10099800E4F51530060543151080035315EFE515EA
:1009A800651B60108515807F0512087CE4FF12081E
:0409B8007C85151B0A
:0109BC002218
:0F06BA000D08C0F9A4B0999282F88090FFC1BFDB
:100779008F168D178B187580FF7F0712087CE4FF91
:1007890012087CAF167401A807088002C333D8FC8D
:10079900F5807F0612087CE4FF12087C740825178F
:1007A900F8E6F580E518600353807F7F0712087C1F
:0507B900E4FF02087CD2
:10094800E4FFD2B3D2B2D2B4D2B5C2B520B3010F4C
:1009580020B203430702D2B5C2B420B3034307044D
:0809680020B203430708D2B4DA
:010970002264
:10087C00EF24FB601314601914601F24037024E52B
:10088C00A0541F4480F5A022E5A0541F44A0F5A05D
:10089C0022E5A0541F44C0F5A022E5A0541F44E05B
:0708AC00F5A02253A01F225A
:100A7600E4FEC297EF1392A3EFC313FFD2970EBE05
:020A860008F076
:010A8800224B
:0809FE0075F00A84EE25F0FDFE
:100A0600C29300C29700D29300120A76AF05120A6B
:040A160076C29322EF
:1008E700E4FDC29300C29700D29300120A76E4FF98
:1008F700C297EDC313FD30A303430580D2970FBF03
:1009070008EEC29300C29700D29700C2A300D2A3F9
:0309170000AF0529
:01091A0022BA
:10072700E4FD7F8E120A06120273FF75F00A84C475
:1007370054F0FEEF7F841209FE90000112028CFF35
:1007470075F00A84C454F0FEEF7F821209FE900010
:100757000212028CFF75F00A84C454F0FEEF75F0A4
:100767000A84EE25F0FD7F80120A067D807F8E02C7
:020777000A0670
:1007BE007F851208E7EFC4540F75F00AA4FEEF54BC
:1007CE000F2E1202B97F831208E7EFC4540F75F093
:1007DE000AA4FEEF540F2E9000011202CB7F81125D
:1007EE0008E7EFC4540F75F00AA4FEEF540F2E90D5
:0507FE0000020202CB25
:040A1A007F057E00D6
:100A1E00EF1FAA0670011E4A600BE4FDEDC3940C95
:050A2E0050EE0D80F701
:010A330022A0
:0209E000A90765
:1009E200E4FBC294E9139294120A1AD294E9C31353
:0C09F200F90BBB08ED7F057E00020A1E19
:100A3400E4FBC294ECC313FCD294309403430480CB
:090A4400120A1A0BBB08EBAF0407
:010A4D002286
:10097100C206D2947F0C7E00120A1EC2947F507E62
:1009810000120A1ED2947F0A7E00120A1EA29492BD
:0609910006120A1AA2067C
:01099700223D
:10084400E4FFF91209717FCC1209E07F441209E038
:100854001209717FCC1209E07FBE1209E0120A343A
:10086400A907120A34EFAD01FCE41201B9E4FBFA62
:0708740079807841120117A1
:01087B00225A
:10000E00EC4D6011E8497017ED33EC3304600DE4EC
:10001E00FCFFFEFD22E933E8330470F802025E12A3
:10002E00022958046009E4CC2481500628500902A4
:10003E000268284003020265C0E0EB4A7044B980B2
:10004E0006D0E0FB020254EF4E701CBD8008EBFFA1
:10005E00EAFEE9FD80EBE98DF0A4FEE5F00200F783
:10006E00E9CDF9EAFEEBFFEF89F0A4FCE5F0CE89CD
:10007E00F0A42EFFE435F0CD89F0A42DFEE435F08A
:10008E008067EF4E7005BD80D780C3EF8BF0A4ACB8
:10009E00F0EE8BF0A42CFCE435F0F8EF8AF0A42CF3
:1000AE00E5F038FCE433CB8DF0A42CFCE5F03BF806
:1000BE00EE8AF0A42CFCE5F038F8E433CF89F0A4F6
:1000CE002CFCE5F038CF3400CE89F0A42FFFE5F0FC
:1000DE003EFEE433C98DF0A42EFEE5F039CD8AF054
:1000EE00A42FFFE5F03EFEE43DFD33D0E0FB5007CC
:1000FE000BBB000F020268EC2CFCEF33FFEE33FE5D
:06010E00ED33FD0202408A
:10011400020268EC5D046005E85904700302025EA3
:10012400120229580460F6EC4860F2EC7004FDFEFB
:10013400FF22C860DB2481C85009C39860025006BE
:100144000202659850CAF582E9294B4A7005AB82D0
:1001540002025475F0007C1A7880C3EF9BEE9AED8E
:1001640099400DC3EF9BFFEE9AFEED99FDE842F036
:10017400DC23ACF0D0E0FFD0E0FED0E0FDAB822089
:10018400E7101BEB60BAEC2CFCEF33FFEE33FEED13
:1001940033FD020240E803F830E705C0F075F000D3
:1001A400EF2FFFEE33FEED33FD40B830E7C280AAF7
:1001B40075F020800E75F010800575F0087D007EC6
:1001C400007F003392D530D503120342EC33401044
:1001D400EF33FFEE33FEED33FDEC33FCD5F0ED22CF
:0E01E400E5F0247EA2D513CC92E7CDCEFF220B
:1001F200EDD2E7CD33EC3392D524814006E4FFFE05
:10020200FDFC22FCE4CFCECDCC24E0501174FF8063
:10021200EDC3CC13CCCD13CDCE13CECF13CF047000
:07022200F030D5DE020342BB
:10022900E9D2E7C933E833F892D5EDD2E7CD33EC1B
:0702390033FC5002B2D52294
:10024000EC30E7100FBF000C0EBE00080DBD00041F
:100250000BEB6014A2D5EB13FCED92E7FD2274FFCB
:10026000FCFDFEFF22E480F8A2D574FF13FC7D8024
:03027000E480EF38
:1005DE000209BDE493A3F8E493A34003F68001F26D
:1005EE0008DFF48029E493A3F85407240CC8C3331E
:1005FE00C4540F4420C8834004F456800146F6DFED
:10060E00E4800B010204081020408090065EE47E18
:10061E00019360BCA3FF543F30E509541FFEE493E1
:10062E00A360010ECF54C025E060A840B8E493A3A8
:10063E00FAE493A3F8E493A3C8C582C8CAC583CAD3
:10064E00F0A3C8C582C8CAC583CADFE9DEE780BE8B
:0106C9000030
:10027300BB010689828A83E0225002E722BBFE0289
:09028300E32289828A83E49322BC
:10028C00BB010CE58229F582E5833AF583E0225027
:10029C0006E92582F8E622BBFE06E92582F8E22271
:0D02AC00E58229F582E5833AF583E493228B
:1002B900BB010689828A83F0225002F722BBFE0124
:0202C900F3221E
:1002CB00F8BB010DE58229F582E5833AF583E8F069
:1002DB00225006E92582C8F622BBFE05E92582C815
:0202EB00F222FD
:1002ED00BC000BBE0029EF8DF084FFADF022E4CCF5
:1002FD00F875F008EF2FFFEE33FEEC33FCEE9DECBE
:10030D00984005FCEE9DFE0FD5F0E9E4CEFD22ED03
:10031D00F8F5F0EE8420D21CFEADF075F008EF2F4D
:10032D00FFED33FD4007985006D5F0F222C398FD3E
:05033D000FD5F0EA22DB
:0E034200C3E49FFFE49EFEE49DFDE49CFC22CC
:00000001FF
