:0300000002059363
:0C059300787FE4F6D8FD7581300205DAAF
:10061F0001280088100A0A0A0A0A0A0A0A8808002A
:10062F000000000000000001290088000000000009
:10063F0000000000C101C105C102C104022A00006F
:10064F00012100012C00C10302250000012717031F
:10065F00220C3B32C100012F00013000012D00019F
:02066F002E005B
:1009F800438E805389F0758A20758CD1C28DD28C34
:050A0800D2A9D2AF22CB
:100A2000782DE6700A7601FB7A00792212076B2294
:1008C700E4FFFE782EE670227601120828E4FBFA90
:1008D7007920784112000E1201F2D3EF9420EE94A2
:0A08E7000350077825A60608A607AF
:0108F10022E4
:1006D9007823E6700608E67002D205300006A20506
:1006E900920180187827E675F00AA4FFD318E69FCF
:1006F90018E695F04003D38001C39201A205E433C3
:100709007800F22000047F0180027F007801EFF277
:0D071900A204E43308F2A201920602094294
:10035000782FE6600302043276017810740BF2788D
:1003600029E6FF047811F208740AF2EF14605714BA
:100370007003020415240260030204327813740A25
:10038000F208F27825E6FA08E6FB7C007D64FFAE11
:10039000021202ED7815EFF27C007D0AAF03AE0287
:1003A0001202ED7C007D0A1202ED7816EDF2780E55
:1003B0007401F27825E6FE08E6FF7C007D0A120251
:1003C000ED7817EDF22230031C7823E6FF75F00A72
:1003D000847813F2EF75F00A8408E5F0F208740CE3
:1003E000F27824801A7822E6FF75F00A847813F2F6
:1003F000EF75F00A8408E5F0F208740CF27823E651
:10040000FF75F00A847816F2E4780EF2EF75F00AC0
:10041000847817801A7813740AF208F208F27827A1
:10042000E6FF75F00A847816F2EF75F00A8408E5A5
:03043000F0F222C5
:1004FD00E4F5157830E660030205927601782CE676
:10050D00FFC454F0F61208F2782CE64FF65411FFA2
:10051D00BF010375150C782CE6FF5422FEBE0203B5
:10052D0075150DEF5444FFBF0403751510782CE6B7
:10053D005488FFBF0803751511BF8804D2038002CC
:10054D00C203E51524F3601624FD601514602524FF
:10055D00057032782906E675F00384A6F022B20004
:10056D00227829E66402701D782706E6C3945A4066
:10057D00147663227829E6B4020B782716E6D39415
:05058D000A5002760A8D
:010592002246
:03000B00020433B9
:10043300C0E0C0F0C083C082C0D075D000C000C08F
:1004430001C002C003C004C005C006C00778280667
:10045300782F060806782D0608067828E6C3940840
:1004630040027600782FE6C3945A40027600783033
:10047300E6C3940A40027600782DE6C394A04002B6
:100483007600782EE6C394A04002760030051B78F0
:100493002A0806E618700106FF8606BE130CBF88FD
:1004A30009782A7600087600C20530010F78210604
:1004B300E6C39464400CB20476008006782176008B
:1004C300C2047828E6FF2410F8E2FD7828E6240821
:1004D300F8E2FB1207267BFE7A0079001207B0D000
:1004E30007D006D005D004D003D002D001D000D06D
:0A04F300D0D082D083D0F0D0E032E8
:1009670012085F1209F87B007A00792212068712B3
:1009770008281203501204FD1208C7120A20120693
:03098700D980EF25
:06067100011A00011B004C
:10085F007580FF7F041207F1E4FF1207F17580AF77
:10086F007F051207F1E4FF1207F17580FF7F061273
:10087F0007F1E4FF1207F17580FF7F071207F1E41C
:04088F00FF0207F16C
:0607B0008B168A17891860
:1007B600E4F519FFAB16AA17A9188F8275830012E4
:1007C600028CFEA807088002C333D8FC42190FBF6B
:1007D60008E2E519651A6012E519F4F5807F04123E
:0A07E60007F1E4FF1207F185191A6C
:0107F00022E6
:10094200E4F51530060543151080035315EFE51540
:10095200651B60108515807F051207F1E4FF120701
:04096200F185151BEB
:01096600226E
:0F0677000D08C0F9A4B0999282F88090FFC1BF1E
:100726008F168D178B187580FF7F071207F1E4FF70
:100736001207F1AF16A8077401088002C333D8FC6C
:10074600F5807F061207F1E4FF1207F174082517FA
:10075600F8E6F580E518600353807F7F071207F1FE
:05076600E4FF0207F1B1
:1008F200E4FFD2B3D2B2D2B4D2B5C2B520B3010FA3
:1009020020B203430702D2B5C2B420B303430704A3
:0809120020B203430708D2B430
:01091A0022BA
:1007F100EF24FB601314601914601F24037024E5B7
:10080100A0541F4480F5A022E5A0541F44A0F5A0E8
:1008110022E5A0541F44C0F5A022E5A0541F44E0E6
:07082100F5A02253A01F22E5
:100A0D00E4FEC297EF1392A3EFC313FFD2970EBE6E
:020A1D0008F0DF
:010A1F0022B4
:0809A80075F00A84EE25F0FD54
:1009B000C29300C29700D29300120A0DAF05120A2B
:0409C0000DC29322AF
:10089300E4FDC29300C29700D29300120A0DE4FF55
:1008A300C297EDC313FD30A303430580D2970FBF57
:1008B30008EEC29300C29700D29700C2A300D2A34E
:0308C30000AF057E
:0108C600220F
:10068700E4FD7F8E1209B0120273FF75F00A84C46D
:1006970054F0FEEF7F841209A890000112028CFF2C
:1006A70075F00A84C454F0FEEF7F821209A8900007
:1006B7000212028CFF75F00A84C454F0FEEF75F045
:1006C7000A84EE25F0FD7F801209B07D807F8E02BF
:0206D70009B068
:10076B007F85120893EFC4540F75F00AA4FEEF5463
:10077B000F2E1202B97F83120893EFC4540F75F03A
:10078B000AA4FEEF540F2E9000011202CB7F8112B0
:10079B000893EFC4540F75F00AA4FEEF540F2E907C
:0507AB0000020202CB78
:0409C4007F057E002D
:1009C800EF1FAA0670011E4A600BE4FDEDC3940CEC
:0509D80050EE0D80F758
:0109DD0022F7
:02098A00A907BB
:10098C00E4FBC294E91392941209C4D294E9C31300
:0C099C00F90BBB08ED7F057E000209C8C6
:1009DE00E4FBC294ECC313FCD29430940343048022
:0909EE001209C40BBB08EBAF04B5
:0109F70022DD
:10091B00C206D2947F0C7E001209C8C2947F507E0F
:10092B00001209C8D2947F0A7E001209C8A29492C1
:06093B00061209C4A20629
:010941002293
:10082800E4FFF912091B7FCC12098A7F4412098A56
:1008380012091B7FCC12098A7FBE12098A1209DEAF
:10084800A9071209DEEFAD01FCEC1201B9E4FBFACD
:0708580079807841020117CD
:10000E00EC4D6011E8497017ED33EC3304600DE4EC
:10001E00FCFFFEFD22E933E8330470F802025E12A3
:10002E00022958046009E4CC2481500628500902A4
:10003E000268284003020265C0E0EB4A7044B980B2
:10004E0006D0E0FB020254EF4E701CBD8008EBFFA1
:10005E00EAFEE9FD80EBE98DF0A4FEE5F00200F783
:10006E00E9CDF9EAFEEBFFEF89F0A4FCE5F0CE89CD
:10007E00F0A42EFFE435F0CD89F0A42DFEE435F08A
:10008E008067EF4E7005BD80D780C3EF8BF0A4ACB8
:10009E00F0EE8BF0A42CFCE435F0F8EF8AF0A42CF3
:1000AE00E5F038FCE433CB8DF0A42CFCE5F03BF806
:1000BE00EE8AF0A42CFCE5F038F8E433CF89F0A4F6
:1000CE002CFCE5F038CF3400CE89F0A42FFFE5F0FC
:1000DE003EFEE433C98DF0A42EFEE5F039CD8AF054
:1000EE00A42FFFE5F03EFEE43DFD33D0E0FB5007CC
:1000FE000BBB000F020268EC2CFCEF33FFEE33FE5D
:06010E00ED33FD0202408A
:10011400020268EC5D046005E85904700302025EA3
:10012400120229580460F6EC4860F2EC7004FDFEFB
:10013400FF22C860DB2481C85009C39860025006BE
:100144000202659850CAF582E9294B4A7005AB82D0
:1001540002025475F0007C1A7880C3EF9BEE9AED8E
:1001640099400DC3EF9BFFEE9AFEED99FDE842F036
:10017400DC23ACF0D0E0FFD0E0FED0E0FDAB822089
:10018400E7101BEB60BAEC2CFCEF33FFEE33FEED13
:1001940033FD020240E803F830E705C0F075F000D3
:1001A400EF2FFFEE33FEED33FD40B830E7C280AAF7
:1001B40075F020800E75F010800575F0087D007EC6
:1001C400007F003392D530D503120342EC33401044
:1001D400EF33FFEE33FEED33FDEC33FCD5F0ED22CF
:0E01E400E5F0247EA2D513CC92E7CDCEFF220B
:1001F200EDD2E7CD33EC3392D524814006E4FFFE05
:10020200FDFC22FCE4CFCECDCC24E0501174FF8063
:10021200EDC3CC13CCCD13CDCE13CECF13CF047000
:07022200F030D5DE020342BB
:10022900E9D2E7C933E833F892D5EDD2E7CD33EC1B
:0702390033FC5002B2D52294
:10024000EC30E7100FBF000C0EBE00080DBD00041F
:100250000BEB6014A2D5EB13FCED92E7FD2274FFCB
:10026000FCFDFEFF22E480F8A2D574FF13FC7D8024
:03027000E480EF38
:10059F00020967E493A3F8E493A34003F68001F202
:1005AF0008DFF48029E493A3F85407240CC8C3335D
:1005BF00C4540F4420C8834004F456800146F6DF2C
:1005CF00E4800B010204081020408090061FE47E97
:1005DF00019360BCA3FF543F30E509541FFEE49321
:1005EF00A360010ECF54C025E060A840B8E493A3E8
:1005FF00FAE493A3F8E493A3C8C582C8CAC583CA13
:10060F00F0A3C8C582C8CAC583CADFE9DEE780BECA
:010686000073
:10027300BB010689828A83E0225002E722BBFE0289
:09028300E32289828A83E49322BC
:10028C00BB010CE58229F582E5833AF583E0225027
:10029C0006E92582F8E622BBFE06E92582F8E22271
:0D02AC00E58229F582E5833AF583E493228B
:1002B900BB010689828A83F0225002F722BBFE0124
:0202C900F3221E
:1002CB00F8BB010DE58229F582E5833AF583E8F069
:1002DB00225006E92582C8F622BBFE05E92582C815
:0202EB00F222FD
:1002ED00BC000BBE0029EF8DF084FFADF022E4CCF5
:1002FD00F875F008EF2FFFEE33FEEC33FCEE9DECBE
:10030D00984005FCEE9DFE0FD5F0E9E4CEFD22ED03
:10031D00F8F5F0EE8420D21CFEADF075F008EF2F4D
:10032D00FFED33FD4007985006D5F0F222C398FD3E
:05033D000FD5F0EA22DB
:0E034200C3E49FFFE49EFEE49DFDE49CFC22CC
:00000001FF
