:0300000002059561
:0C059500787FE4F6D8FD7581300205DCAB
:1006210001280088100A0A0A0A0A0A0A0A88080028
:100631000000000000000001290088000000000007
:1006410000000000C101C105C102C104022A00006D
:10065100012100012C00C10302250000012717031D
:10066100220C3B32C100012F00013000012D00019D
:020671002E0059
:1009FD00438E805389F0758A20758CD1C28DD28C2F
:050A0D00D2A9D2AF22C6
:100A1200782DE6700D782D76017B007A007922120E
:030A2200076D223B
:1008CA00E4FFFE782EE67024782E76011207F3E410
:1008DA00FBFA7920784112000E1201F2D3EF94202C
:0C08EA00EE940350077825A60608A60728
:0108F60022DF
:1006DB007823E6700608E67002D205300006A20504
:1006EB00920180187827E675F00AA4FFD318E69FCD
:1006FB0018E695F04003D38001C39201A205E433C1
:10070B007800F22000047F0180027F007801EFF275
:0D071B00A204E43308F2A20192060209478D
:10035000782FE66003020434782F76017810740B4E
:10036000F27829E6FF047811F208740AF2EF1460BB
:100370005714700302041724026003020434781334
:10038000740AF208F27825E6FA08E6FB7C007D6440
:10039000FFAE021202ED7815EFF27C007D0AAF038A
:1003A000AE021202ED7C007D0A1202ED7816EDF22B
:1003B000780E7401F27825E6FE08E6FF7C007D0ADF
:1003C0001202ED7817EDF22230031C7823E6FF7558
:1003D000F00A847813F2EF75F00A8408E5F0F20869
:1003E000740CF27824801A7822E6FF75F00A84787B
:1003F00013F2EF75F00A8408E5F0F208740CF27855
:1004000023E6FF75F00A847816F2E4780EF2EF75B1
:10041000F00A847817801A7813740AF208F208F246
:100420007827E6FF75F00A847816F2EF75F00A84F3
:0504300008E5F0F222D6
:1004FF00E4F5157830E660030205947830760178DC
:10050F002CE6FFC454F0F61208F7782CE64FF65499
:10051F0011FFBF100375150C782CE6FF5422FEBE99
:10052F00200375150DEF5444FFBF40037515107868
:10053F002CE65488FFBF8005751511C203BF080252
:10054F00D203E51524F3601624FD601514602524ED
:10055F00057032782906E675F00384A6F022B20002
:10056F00227829E66402701D782706E6C3945A4064
:10057F00147663227829E6B4020B782716E6D39413
:05058F000A5002760A8B
:010594002244
:03000B00020435B7
:10043500C0E0C0F0C083C082C0D075D000C000C08D
:1004450001C002C003C004C005C006C00778280665
:10045500782F060806782D0608067828E6C394083E
:1004650040027600782FE6C3945A40027600783031
:10047500E6C3940A40027600782DE6C394A04002B4
:100485007600782EE6C394A04002760030051B78EE
:100495002A0806E618700106FF8606BE130CBF88FB
:1004A50009782A7600087600C20530010F78210602
:1004B500E6C39464400CB204760080067821760089
:1004C500C2047828E6FF2410F8E2FD7828E624081F
:1004D500F8E2FB1207287BFE7A0079001207B2D0FA
:1004E50007D006D005D004D003D002D001D000D06B
:0A04F500D0D082D083D0F0D0E032E6
:10096C001208621209FD7B007A00792212068912A4
:10097C0007F31203501204FF1208CA120A121206CD
:03098C00DB80EF1E
:06067300011A00011B004A
:100862007580FF7F0412082BE4FF12082B7580AFFE
:100872007F0512082BE4FF12082B7580FF7F0612FA
:10088200082BE4FF12082B7580FF7F0712082BE468
:04089200FF02082B2E
:0607B2008B168A1789185E
:1007B800E4F519FFAB16AA17A9188F8275830012E2
:1007C800028CFEA807088002C333D8FC42190FBF69
:1007D80008E2E519651A6012E519F4F5807F04123C
:0A07E800082BE4FF12082B85191AF4
:0107F20022E4
:10094700E4F51530060543151080035315EFE5153B
:10095700651B60108515807F0512082BE4FF1208C0
:040967002B85151BAC
:01096B002269
:0F0679000D08C0F9A4B0999282F88090FFC1BF1C
:100728008F168D178B187580FF7F0712082BE4FF33
:1007380012082BAF167401A807088002C333D8FC2F
:10074800F5807F0612082BE4FF12082B7408251782
:10075800F8E6F580E518600353807F7F0712082BC1
:05076800E4FF02082B74
:1008F700E4FFD2B3D2B2D2B4D2B5C2B520B3010F9E
:1009070020B203430702D2B5C2B420B3034307049E
:0809170020B203430708D2B42B
:01091F0022B5
:10082B00EF24FB601314601914601F24037024E57C
:10083B00A0541F4480F5A022E5A0541F44A0F5A0AE
:10084B0022E5A0541F44C0F5A022E5A0541F44E0AC
:07085B00F5A02253A01F22AB
:100A2500E4FEC297EF1392A3EFC313FFD2970EBE56
:020A350008F0C7
:010A3700229C
:0809AD0075F00A84EE25F0FD4F
:1009B500C29300C29700D29300120A25AF05120A0E
:0409C50025C2932292
:10089600E4FDC29300C29700D29300120A25E4FF3A
:1008A600C297EDC313FD30A303430580D2970FBF54
:1008B60008EEC29300C29700D29700C2A300D2A34B
:0308C60000AF057B
:0108C900220C
:10068900E4FD7F8E1209B5120273FF75F00A84C466
:1006990054F0FEEF7F841209AD90000112028CFF25
:1006A90075F00A84C454F0FEEF7F821209AD900000
:1006B9000212028CFF75F00A84C454F0FEEF75F043
:1006C9000A84EE25F0FD7F801209B57D807F8E02B8
:0206D90009B561
:10076D007F85120896EFC4540F75F00AA4FEEF545E
:10077D000F2E1202B97F83120896EFC4540F75F035
:10078D000AA4FEEF540F2E9000011202CB7F8112AE
:10079D000896EFC4540F75F00AA4FEEF540F2E9077
:0507AD0000020202CB76
:0409C9007F057E0028
:1009CD00EF1FAA0670011E4A600BE4FDEDC3940CE7
:0509DD0050EE0D80F753
:0109E20022F2
:02098F00A907B6
:10099100E4FBC294E91392941209C9D294E9C313F6
:0C09A100F90BBB08ED7F057E000209CDBC
:1009E300E4FBC294ECC313FCD2943094034304801D
:0909F3001209C90BBB08EBAF04AB
:0109FC0022D8
:10092000C206D2947F0C7E001209CDC2947F507E05
:10093000001209CDD2947F0A7E001209CDA29492B2
:06094000061209C9A2061F
:01094600228E
:1007F300E4FFF91209207FCC12098F7F4412098F7D
:100803001209207FCC12098F7FBE12098F1209E3D0
:10081300A9071209E3EFAD01FCE41201B9E4FBFA05
:0708230079807841120117F2
:01082A0022AB
:10000E00EC4D6011E8497017ED33EC3304600DE4EC
:10001E00FCFFFEFD22E933E8330470F802025E12A3
:10002E00022958046009E4CC2481500628500902A4
:10003E000268284003020265C0E0EB4A7044B980B2
:10004E0006D0E0FB020254EF4E701CBD8008EBFFA1
:10005E00EAFEE9FD80EBE98DF0A4FEE5F00200F783
:10006E00E9CDF9EAFEEBFFEF89F0A4FCE5F0CE89CD
:10007E00F0A42EFFE435F0CD89F0A42DFEE435F08A
:10008E008067EF4E7005BD80D780C3EF8BF0A4ACB8
:10009E00F0EE8BF0A42CFCE435F0F8EF8AF0A42CF3
:1000AE00E5F038FCE433CB8DF0A42CFCE5F03BF806
:1000BE00EE8AF0A42CFCE5F038F8E433CF89F0A4F6
:1000CE002CFCE5F038CF3400CE89F0A42FFFE5F0FC
:1000DE003EFEE433C98DF0A42EFEE5F039CD8AF054
:1000EE00A42FFFE5F03EFEE43DFD33D0E0FB5007CC
:1000FE000BBB000F020268EC2CFCEF33FFEE33FE5D
:06010E00ED33FD0202408A
:10011400020268EC5D046005E85904700302025EA3
:10012400120229580460F6EC4860F2EC7004FDFEFB
:10013400FF22C860DB2481C85009C39860025006BE
:100144000202659850CAF582E9294B4A7005AB82D0
:1001540002025475F0007C1A7880C3EF9BEE9AED8E
:1001640099400DC3EF9BFFEE9AFEED99FDE842F036
:10017400DC23ACF0D0E0FFD0E0FED0E0FDAB822089
:10018400E7101BEB60BAEC2CFCEF33FFEE33FEED13
:1001940033FD020240E803F830E705C0F075F000D3
:1001A400EF2FFFEE33FEED33FD40B830E7C280AAF7
:1001B40075F020800E75F010800575F0087D007EC6
:1001C400007F003392D530D503120342EC33401044
:1001D400EF33FFEE33FEED33FDEC33FCD5F0ED22CF
:0E01E400E5F0247EA2D513CC92E7CDCEFF220B
:1001F200EDD2E7CD33EC3392D524814006E4FFFE05
:10020200FDFC22FCE4CFCECDCC24E0501174FF8063
:10021200EDC3CC13CCCD13CDCE13CECF13CF047000
:07022200F030D5DE020342BB
:10022900E9D2E7C933E833F892D5EDD2E7CD33EC1B
:0702390033FC5002B2D52294
:10024000EC30E7100FBF000C0EBE00080DBD00041F
:100250000BEB6014A2D5EB13FCED92E7FD2274FFCB
:10026000FCFDFEFF22E480F8A2D574FF13FC7D8024
:03027000E480EF38
:1005A10002096CE493A3F8E493A34003F68001F2FB
:1005B10008DFF48029E493A3F85407240CC8C3335B
:1005C100C4540F4420C8834004F456800146F6DF2A
:1005D100E4800B0102040810204080900621E47E93
:1005E100019360BCA3FF543F30E509541FFEE4931F
:1005F100A360010ECF54C025E060A840B8E493A3E6
:10060100FAE493A3F8E493A3C8C582C8CAC583CA10
:10061100F0A3C8C582C8CAC583CADFE9DEE780BEC8
:010688000071
:10027300BB010689828A83E0225002E722BBFE0289
:09028300E32289828A83E49322BC
:10028C00BB010CE58229F582E5833AF583E0225027
:10029C0006E92582F8E622BBFE06E92582F8E22271
:0D02AC00E58229F582E5833AF583E493228B
:1002B900BB010689828A83F0225002F722BBFE0124
:0202C900F3221E
:1002CB00F8BB010DE58229F582E5833AF583E8F069
:1002DB00225006E92582C8F622BBFE05E92582C815
:0202EB00F222FD
:1002ED00BC000BBE0029EF8DF084FFADF022E4CCF5
:1002FD00F875F008EF2FFFEE33FEEC33FCEE9DECBE
:10030D00984005FCEE9DFE0FD5F0E9E4CEFD22ED03
:10031D00F8F5F0EE8420D21CFEADF075F008EF2F4D
:10032D00FFED33FD4007985006D5F0F222C398FD3E
:05033D000FD5F0EA22DB
:0E034200C3E49FFFE49EFEE49DFDE49CFC22CC
:00000001FF
