:030000000208559E
:0C085500787FE4F6D8FD75814402089C11
:1008E10001380088080A0A0A0A0A0A0A0A88000066
:1008F10000000000000000013D0002390000022854
:100901000000023F0000C101012A00012700041775
:1009110000000000022B0000C100012F00023B007B
:100921005A012D28012E06083000000000000000A9
:1009310000013E0001440001430001410001420069
:100C4A00438E805389F0438904E4F58AF58CC28D7A
:030C5A00D28C2217
:100BF700438E4053890F758B20758DD1C28FD28E4E
:050C0700D2ABD2AF22C8
:100C0C007842E6700F760112099E120202782BA62A
:050C1C000608A60722F6
:100A68007841E670397601120ADE7827EFF6FCE461
:100A78001201CEE4FBFA794C78421201278F1A8EC4
:100A8800198D188C17E4FFFE7DA07C41AB1AAA19BA
:0F0A9800A918A81712001E120202782AA6072218
:1006D400E4F5217844E660030207A27601783EE659
:1006E400FFC454F0F6120BB1783EE64FF65411FFF6
:1006F400BF1003752104783EE6FF5422FEBE20039A
:10070400752105EF5444FFBF4003752106783EE68A
:100714005488FFBF8003752107E52124FB60121470
:10072400601A14604924037075783D06E65403F694
:1007340022782F06E675F00384A6F022783DE6FFC2
:10074400B40203B20022EF64037053782FE61460FE
:100754001214601624027046783C740526F618E4D8
:1007640036F622782D740A26F622782E0622783D53
:10077400E6FF7003B20122EFB40323782FE614607E
:100784001314601724027016783C74FB26F6187450
:0E079400FF36F622782D74F626F622782E1601
:0107A2002234
:1003E100E4FF7843E660030206D37601783DE61424
:1003F100700302058F1470030205B914700302061D
:1004010051240360030206D37808740BF20814F236
:10041100E47806F23001030204B47839E6FE08E616
:10042100FFE4FCFD7BA07A867901F81209E3780AE2
:10043100EFF27839E6FA08E6FB7C277D10FFAE0281
:100441001202B0780BEFF27C037DE8AF03AE02122B
:1004510002B07C007D0A1202B0780CEDF27839E628
:10046100FA08E6FB7C007D64FFAE021202B07C005C
:100471007D0A1202B0780DEDF27C007D0AAF03AE69
:10048100021202B07C007D0A1202B0780EEDF27801
:1004910039E6FE08E6FF7C007D0A1202B0780FED16
:1004A100F27F0274082FF8E260030206D3740AF2A5
:1004B1000F80F078067401F2C3783AE6946418E686
:1004C10094005011780A740AF208F208F208F2E472
:1004D10008F208F2227839E6FC08E6FDE41201C9C7
:1004E100E4FBFA79C878421201271202027828A6A1
:1004F1000608A60718E6FE08E6FFE4FCFD7BA07AE5
:10050100867901F81209E3780AEFF27828E6FA0809
:10051100E6FB7C277D10FFAE021202B0780BEFF2F2
:100521007C037DE8AF03AE021202B07C007D0A12AB
:1005310002B0780CEDF27828E6FA08E6FB7C007D43
:1005410064FFAE021202B07C007D0A1202B0780D87
:10055100EDF27C007D0AAF03AE021202B07C007D99
:100561000A1202B0780EEDF27828E6FE08E6FF7C6A
:10057100007D0A1202B0780FEDF27F0274082FF8A5
:10058100E260030206D3740AF20FBF06EF22780875
:10059100740EF2E47806F27809740AF208F208F2AD
:1005A10008F208F2782AE6FF75F00A84780EF2EF75
:1005B10075F00A84080206D07808740CF220004F06
:1005C10008740AF208F208F208F2782BE6FA08E653
:1005D100FB7C007D64FFAE021202B0780DEFF2E405
:1005E1007805F2FC7D0AAF03AE021202B0780EEF7D
:1005F100F2782BE6FE08E6FF7C007D0A1202B07855
:100601000FEDF2780DE260030206D3740AF222784C
:1006110009740AF208F208F208F2782BE6FA08E601
:10062100FB7C007D64FFAE021202B0780DEFF27820
:10063100057401F27C007D0AAF03AE021202B078AC
:100641000EEFF2782BE6FE08E6FF7C007D0A80487B
:10065100E47805F27808740DF2782FE6FF04780942
:10066100F208740AF208F208F208F2EF1460311489
:1006710060462402705C783BE6FA08E6FB7C007D6C
:100681000AFFAE021202B0780EEFF278067401F2A0
:100691007C007D0AAF03AE021202B0780FEDF222A8
:1006A100782DE6FF75F00A84780EF2E47806F2EF11
:1006B10075F00A84780F8017782EE6FF75F00A84AA
:1006C100780EF278067401F2EF75F00A84780FE57E
:0206D100F0F245
:0106D3002204
:03001B000207A336
:1007A300C0E0C0F0C083C082C0D075D000C000C01C
:1007B30001C002C003C004C005C006C007784306D9
:1007C300E6C3945A40027600783806E6C39408409C
:1007D300027600784406E6C3940A40027600784124
:1007E30006E6C394A040027600784206E6C394A0CE
:1007F30040027600783F0806E6187001068606C3B5
:1008030094E8EE9403401C783F7600087600C28C8F
:10081300AF8CEFAD8A7839F6ED08F6758A00758CE2
:1008230000D28C7838E6FF2408F8E2FD7838E62415
:1008330000F8E2FB120959D007D006D005D004D046
:1008430003D002D001D000D0D0D082D083D0F0D05A
:02085300E03291
:100C3600120C4A120BF7120C0C120A681203E1127C
:040C460006D480F25E
:100AA700EF24FB601314601914601F24037024E5FE
:100AB700A0541F4480F5A022E5A0541F44A0F5A030
:100AC70022E5A0541F44C0F5A022E5A0541F44E02E
:070AD700F5A02253A01F222D
:100941000F08C0F9A4B0999282F88090FF8E888C2C
:01095100891C
:100959008F228D238B247580FF7F07120AA7E4FF5E
:10096900120AA7AF22A8077401088002C333D8FC72
:10097900F5807F06120AA7E4FF120AA77408252347
:10098900F8E6F580E524600353807F7F07120AA704
:05099900E4FF020AA7C3
:0609520001250001260052
:060A27008B1B8A1C891DD7
:100A2D00E4F51EFFAB1BAA1CA91D8F827583001256
:100A3D000283FEA807088002C333D8FC421E0FBFF5
:100A4D0008E2E51E65256012E51EF4F5807F0412AF
:0A0A5D000AA7E4FF120AA7851E2570
:010A6700226C
:100B3800E4F51F300205431F108003531FEFE51F24
:100B480065266010851F807F05120AA7E4FF120A38
:040B5800A7851F2628
:010B5C002276
:100BB100E4FF20B3010F20B20343070220B1034336
:080BC100070420B003430708FC
:010BC9002209
:060C8F0000007F21DFFEE2
:010C9500223C
:100C6F00E4FED290120C8FC290120C8F0EBE08F2BF
:010C7F002252
:10099E0075D900C2DEC2DFE4F5E9F5F9120C6FD2AB
:1009AE00DE30910330DFFAC2DE20DF1EAFF9EFAD8D
:1009BE00E9FCEC1201C9E4FBFA7988784112001EB9
:1009CE00E4FBFA797A7844020127C2DF7F007EC009
:0509DE007D797C44223C
:040B9700D2A07F0564
:100B9B00000000000000000000000000000000AE9C
:060BAB00071FEE70EB22B3
:0F0C8000D2A1120B97C2A17F05120B9BC2A0221B
:0A0BE100120B5DAD077F0112000347
:0C0BEB00C2A1120B97D2A17F05020B9B48
:020B0C00AD0733
:100B0E00E4FCC2A07F05120B9BED30E704D2A1805E
:100B1E0002C2A17F05120B9BD2A0ED25E0FD7F0541
:090B2E00120B9B0CBC08DBC2A0F9
:010B3700229B
:100B5D00E4FC120B97ED25E0FD30A103430501C226
:0C0B6D00A07F05120B9B0CBC08E8AF0534
:010B79002259
:0B0B7A00120B0C120B85AF03120B0CCA
:100B8500120B97A2A1E433FDC2A07F05120B9BAF08
:010B9500055A
:010B9600223C
:10000300C2A0EF24FF92A17F05120B9B120B97C294
:08001300A0D2A17F05020B9BA6
:100ADE00E4FD120C807F90120B0C120B857F03121B
:100AEE000B0C120B85120C807F91120B0C120B85C6
:0D0AFE00120B5DE4FF120003120BE1AF05C7
:010B0B0022C7
:100C2100AB07120C807F90120B0C120B857F801288
:050C31000B7A020BEB41
:100BCA00AB05AA07120C807FA0120B7AAF02120B98
:070BDA000C120B85020BEB6E
:020C5D00AB07E3
:0F0C5F00E4FD120C807FA1120B7A120BE1AF059E
:010C6E002263
:10001E00EC4D6011E8497017ED33EC3304600DE4DC
:10002E00FCFFFEFD22E933E8330470F802026E1283
:10003E00023958046009E4CC248150062850090284
:10004E000278284003020275C0E0EB4A7044B98082
:10005E0006D0E0FB020264EF4E701CBD8008EBFF81
:10006E00EAFEE9FD80EBE98DF0A4FEE5F002010762
:10007E00E9CDF9EAFEEBFFEF89F0A4FCE5F0CE89BD
:10008E00F0A42EFFE435F0CD89F0A42DFEE435F07A
:10009E008067EF4E7005BD80D780C3EF8BF0A4ACA8
:1000AE00F0EE8BF0A42CFCE435F0F8EF8AF0A42CE3
:1000BE00E5F038FCE433CB8DF0A42CFCE5F03BF8F6
:1000CE00EE8AF0A42CFCE5F038F8E433CF89F0A4E6
:1000DE002CFCE5F038CF3400CE89F0A42FFFE5F0EC
:1000EE003EFEE433C98DF0A42EFEE5F039CD8AF044
:1000FE00A42FFFE5F03EFEE43DFD33D0E0FB5007BC
:10010E000BBB000F020278EC2CFCEF33FFEE33FE3C
:06011E00ED33FD0202506A
:10012400020278EC5D046005E85904700302026E73
:10013400120239580460F6EC4860F2EC7004FDFEDB
:10014400FF22C860DB2481C85009C39860025006AE
:100154000202759850CAF582E9294B4A7005AB82B0
:1001640002026475F0007C1A7880C3EF9BEE9AED6E
:1001740099400DC3EF9BFFEE9AFEED99FDE842F026
:10018400DC23ACF0D0E0FFD0E0FED0E0FDAB822079
:10019400E7101BEB60BAEC2CFCEF33FFEE33FEED03
:1001A40033FD020250E803F830E705C0F075F000B3
:1001B400EF2FFFEE33FEED33FD40B830E7C280AAE7
:1001C40075F020800E75F010800575F0087D007EB6
:1001D400007F003392D530D503120305EC33401071
:1001E400EF33FFEE33FEED33FDEC33FCD5F0ED22BF
:0E01F400E5F0247EA2D513CC92E7CDCEFF22FB
:10020200EDD2E7CD33EC3392D524814006E4FFFEF4
:10021200FDFC22FCE4CFCECDCC24E0501174FF8053
:10022200EDC3CC13CCCD13CDCE13CECF13CF0470F0
:07023200F030D5DE020305E8
:10023900E9D2E7C933E833F892D5EDD2E7CD33EC0B
:0702490033FC5002B2D52284
:10025000EC30E7100FBF000C0EBE00080DBD00040F
:100260000BEB6014A2D5EB13FCED92E7FD2274FFBB
:10027000FCFDFEFF22E480F8A2D574FF13FC7D8014
:03028000E480EF28
:10086100020C36E493A3F8E493A34003F68001F26B
:1008710008DFF48029E493A3F85407240CC8C33398
:10088100C4540F4420C8834004F456800146F6DF67
:10089100E4800B01020408102040809008E1E47E0E
:1008A100019360BCA3FF543F30E509541FFEE4935C
:1008B100A360010ECF54C025E060A840B8E493A323
:1008C100FAE493A3F8E493A3C8C582C8CAC583CA4E
:1008D100F0A3C8C582C8CAC583CADFE9DEE780BE06
:01095800009E
:10028300BB010CE58229F582E5833AF583E0225030
:1002930006E92582F8E622BBFE06E92582F8E2227A
:0D02A300E58229F582E5833AF583E4932294
:1002B000BC000BBE0029EF8DF084FFADF022E4CC32
:1002C000F875F008EF2FFFEE33FEEC33FCEE9DECFB
:1002D000984005FCEE9DFE0FD5F0E9E4CEFD22ED41
:1002E000F8F5F0EE8420D21CFEADF075F008EF2F8B
:1002F000FFED33FD4007985006D5F0F222C398FD7C
:050300000FD5F0EA2218
:1009E300C2D5E830E70FB2D5E4C39BFBE49AFAE43F
:1009F30099F9E498F8EC30E717B2D5120A19120303
:100A03004FE4C39BFBE49AFAE499F9E498F8800372
:100A130012034F30D50DE4C39FFFE49EFEE49DFD1A
:040A2300E49CFC2231
:0E030500C3E49FFFE49EFEE49DFDE49CFC2209
:1003130075F008758200EF2FFFEE33FECD33CDCCA1
:1003230033CCC58233C5829BED9AEC99E582984024
:100333000CF582EE9BFEED9AFDEC99FC0FD5F0D601
:10034300E4CEFBE4CDFAE4CCF9A88222B800C1B92B
:100353000059BA002DEC8BF084CFCECDFCE5F0CB69
:10036300F97818EF2FFFEE33FEED33FDEC33FCEBA2
:1003730033FB10D703994004EB99FB0FD8E5E4F95D
:10038300FA227818EF2FFFEE33FEED33FDEC33FC4A
:10039300C933C910D7059BE99A4007EC9BFCE99A3E
:1003A300F90FD8E0E4C9FAE4CCFB2275F010EF2F83
:1003B300FFEE33FEED33FDCC33CCC833C810D70783
:1003C3009BEC9AE899400AED9BFDEC9AFCE899F8BE
:0E03D3000FD5F0DAE4CDFBE4CCFAE4C8F92251
:00000001FF
