:03000000020D08E6
:0C0D0800787FE4F6D8FD75814C020D4F99
:100C6A00013D0088080A0A0A0A0A0A0A0A880000D4
:100C7A0000000000000000014100023E0000022BBB
:100C8A00000002430000C108012E00012A00041BD3
:100C9A0000000000041700000000022F0000C10736
:100CAA0001340001405A01322801333CC104C10118
:100CBA00C10208350000000000000000C106013131
:100CCA0000014600014800C105012D00014200C192
:100CDA0003024B0000014A00014900014500014797
:030CEA0000C10046
:10110F00438E805389F0438904E4F58AF58CC28DB0
:03111F00D28C224D
:1010E500438E4053890F758B20758DD1C28FD28E5B
:0510F500D2ABD2AF22D6
:10114500438E0475D75075D6FB438E1043AF0422EA
:100D9400E4FF7841E6C3940350187841E6B50704AC
:100DA4007E0180027E0074352FF8A6060FBF03EA89
:100DB400801BE4FF7834E6B50707A206E433FE801F
:100DC400027E0074352FF8A6060FBF03E7A204E4E1
:100DD400337838F6A201E43308F6A202E43308F6C5
:100DE4003004047F0880027F027846A607200007AB
:100DF400300204D2008008300008200205C20078C6
:100E04002D06A2029209120FE7782DE6FFE4FD02F7
:020E140010B814
:100FC0007847E670217601120EAC1203BB782FEE43
:100FD000F608EFF67833E6FDD3EF9DEE940040037C
:070FE000D38001C39202223D
:1008F2007845E66003020A397601120F66782AEF1C
:10090200F6FCE4120387E4FBFA794C7842120267A0
:100912008F1E8E1D8D1C8C1BE4FFFE7DA07C40ABC8
:100922001EAA1DA91CA81B1203044006782E766479
:100932008019E4FFFE7DA07C41AB1EAA1DA91CA864
:100942001B12015E1203BB782EA6077832E6FB78F3
:100952002EE6FAC39B500EE4F51AF5197518807548
:10096200173F020A12EAD394504003020A07EBFF30
:10097200C374509FFDE49400FC120382A804A905ED
:10098200AA06AB07E4FFFE7D807C40120267C0042A
:10099200C005C006C007782EE6FCE4120387D00328
:1009A200D002D001D00012015EC004C005C006C052
:1009B200077832E675F005A4FFC374509FFDE495F5
:1009C200F0FC120382C004C005C006C0077832E6FC
:1009D200FFC374509FFDE49400FC120382A804A993
:1009E20005AA06AB07D007D006D005D004120267CD
:1009F200D003D002D001D00012006D8F1A8E198D53
:100A0200188C17800BE4F51AF5197518A0751740A4
:100A1200792EE7D37832964003D38001C39201E462
:100A2200FFFE7D4C7C42AB1AAA19A918A817120125
:080A32005E1203BB1210FA2250
:100A3A00E4F522784AE66003020B5576017842E62D
:100A4A00FFC454F0F612109F7842E64FF65411FF95
:100A5A00BF10037522047842E6FF5422FEBE20032B
:100A6A00752205EF5444FFBF40037522067842E61B
:100A7A005488FFBF80037522077841E6FEB4010956
:100A8A00BF8804D2038002C203E52224FB601F143C
:100A9A00602714606F24036003020B55784106E651
:100AAA005403F664036003020B557834F622783453
:100ABA0006E675F00384A6F022EEB40203B207221A
:100ACA007841E664036003020B557834E614601635
:100ADA00146022240270747840740526F6E6D394D2
:100AEA00784068760A227832740A26F6E6D3943C6D
:100AFA004059760A227833740A26F6E6D394784067
:100B0A004A760A227841E6FF7003B20822EF6403AC
:100B1A0070397834E61460161460222402702C7836
:100B2A004074FB26F6E6C3940A502076782278327F
:100B3A0074F626F6E6C3940A5011763C227833748A
:0B0B4A00F626F6E6C3940A5002767807
:010B5500227D
:10059A00E4FF7849E660030208F176017841E6143F
:1005AA0070030207481470030207881470030208D4
:1005BA0049240360030208F17808740BF20814F264
:1005CA00E47806F230080302066D783EE6FE08E695
:1005DA00FFE4FCFD7BA07A867901F8120E68780A9E
:1005EA00EFF2783EE6FA08E6FB7C277D10FFAE02C2
:1005FA00120469780BEFF27C037DE8AF03AE0212B6
:10060A0004697C007D0A120469780CEDF2783EE6F2
:10061A00FA08E6FB7C007D64FFAE021204697C00E6
:10062A007D0A120469780DEDF27C007D0AAF03AEF3
:10063A00021204697C007D0A120469780EEDF278D0
:10064A003EE6FE08E6FF7C007D0A120469780FED9B
:10065A00F27F0274082FF8E260030208F1740AF2CA
:10066A000F80F078067401F2C3783FE6946418E6C6
:10067A0094005011780A740AF208F208F208F2E4B7
:10068A0008F208F222783EE6FC08E6FDE41203824C
:10069A00E4FBFA79C878421202671203BB782BA6E8
:1006AA000608A60718E6FE08E6FFE4FCFD7BA07A2A
:1006BA00867901F8120E68780AEFF2782BE6FA08C2
:1006CA00E6FB7C277D10FFAE02120469780BEFF27D
:1006DA007C037DE8AF03AE021204697C007D0A1236
:1006EA000469780CEDF2782BE6FA08E6FB7C007DCB
:1006FA0064FFAE021204697C007D0A120469780D57
:10070A00EDF27C007D0AAF03AE021204697C007D23
:10071A000A120469780EEDF2782BE6FE08E6FF7CF1
:10072A00007D0A120469780FEDF27F0274082FF82F
:10073A00E260030208F1740AF20FBF06EF2278089A
:10074A00740EF2E47806F27809740AF208F208F2F2
:10075A0008F2782EE675F0648475F00A84AFF0EF3B
:10076A00600280027F0A780DEFF2782EE6FF75F0BC
:10077A000A84780EF2EF75F00A84080208EE780807
:10078A00740CF220076B08740AF208F208F208F2F5
:10079A00782FE6FE08E6FF7C007D64120469EF4EBE
:1007AA00600280027F0A780DEFF2E47805F2782F72
:1007BA00E6FA08E6FB7C007D64FFAE02120469EFEC
:1007CA004E7012FC7D0AAF03AE02120469EF4E703E
:1007DA00047F0A8017782FE6FE08E6FF7C007D0A70
:1007EA001204697C007D0A120469AF05780EEF8055
:1007FA003A7809740AF208F208F208F2782FE6FA4F
:10080A0008E6FB7C007D64FFAE02120469780DEFF6
:10081A00F278057401F27C007D0AAF03AE0212047D
:10082A00697C007D0A120469780EEDF2782FE6FEE3
:10083A0008E6FF7C007D0A120469780FEDF222E4D3
:10084A007805F27834E6FFB401047E0080027E0166
:10085A007806EEF27808740DF2EF0408F208740ACA
:10086A00F208F208F2EF14603E146058240270771E
:10087A007840E675F0648475F00A84AFF0EF6002A0
:10088A0080027F0A780DEFF27840E6FF75F00A845D
:10089A0075F00A84780EE5F0F278067401F2EF75C5
:1008AA00F00A84780F803D780D740AF27832E6FFF8
:1008BA0075F00A84780EF2E47806F2EF75F00A848D
:1008CA00780F8020780D740AF27833E6FF75F064A9
:1008DA0084780EF278067401F2EF75F00A8475F0E6
:0708EA000A84780FE5F0F22B
:0108F10022E4
:03001B00020B567F
:100B5600C0E0C0F0C083C082C0D075D000C000C065
:100B660001C002C003C004C005C006C0077849061C
:100B7600E6C3946440027600783D06E6C3940840D6
:100B8600027600784A06E6C3940A40027600784563
:100B960006E6C394A040027600784706E6C394A012
:100BA6004002760078430806E6187001068606C3FA
:100BB60094E8EE9403403378437600087600C28CBE
:100BC600AF8CEFAD8A783EF6ED08F6758A00758C27
:100BD60000D28C08E675F064A4FFD318E69F18E6E9
:100BE60095F04003D38001C392047841E6B4030F25
:100BF600783106E6C39464400A7600B2068004782B
:100C060031760030031F784B0806E6187001068619
:100C160006C394E8EE94034013782D7600E4FDFFB6
:100C26001210B88000784B7600087600783DE6FF13
:100C36002408F8E2FD783DE62400F8E2FB12001EE7
:100C46007B007A007935120EEED007D006D005D09B
:100C560004D003D002D001D000D0D0D082D083D02F
:040C6600F0D0E032B8
:03006300020E1674
:100E1600C0E0C0F0C083C082C0D075D000C000C0A2
:100E260001C002C003C004C005C006C0077848065A
:100E3600E6B40A0276007948E7C3784696500280FF
:100E460001C3920A121009D007D006D005D004D0EB
:100E560003D002D001D000D0D0D082D083D0F0D041
:020E6600E03278
:10102B0012110F1210E5121145E4FDFF1210B81248
:10103B000FC01208F212059A120A3A120D9480EFA1
:100F2F00EF24FB601314601914601F24037024E571
:100F3F00A0541F4480F5A022E5A0541F44A0F5A0A3
:100F4F0022E5A0541F44C0F5A022E5A0541F44E0A1
:070F5F00F5A02253A01F22A0
:100CED000F08C0F9A4B0999282F88090FF8E888C7D
:010CFD00896D
:10001E008F238D248B257580FF7F07120F2FE4FF12
:10002E00120F2FAF23A8077401088002C333D8FC28
:10003E00F5807F06120F2FE4FF120F2F7408252470
:10004E00F8E6F580E525600353807F7F07120F2FBA
:05005E00E4FF020F2F7A
:090CFE000129000128FF01270073
:060EEE008B238A248925F4
:100EF400E4F526FFAB23AA24A9258F82758300126B
:100F0400043CFEA807088002C333D8FC42260FBF66
:100F140008E2E52665276012E526F4F5807F0412D1
:0A0F24000F2FE4FF120F2F85262780
:010F2E0022A0
:100FE70030090543291080035329EFE52965286057
:100FF700108529807F05120F2FE4FF120F2F8529F7
:0210070028229D
:10100900300A0543292080035329DFE52965286033
:10101900108529807F05120F2FE4FF120F2F8529D4
:0210290028227B
:10109F00E4FF20B3010F20B20343070220B1034343
:0810AF00070420B00343070809
:0110B7002216
:0611640000007F21DFFE08
:01116A002262
:10113400E4FED290121164C2901211640EBE08F241
:011144002288
:100EAC0075D900C2DEC2DFE4F5E9F5F9121134D2CE
:100EBC00DE30910330DFFAC2DE20DF1EAFF9EFAD7A
:100ECC00E9FCEC120382E4FBFA7988784112015EAA
:100EDC00E4FBFA797A7844020267C2DFE4FFFEFD94
:020EEC00FC22E6
:04108500D2A07F0571
:10108900000000000000000000000000000000AEA9
:06109900071FEE70EB22C0
:0F115500D2A1121085C2A17F05121089C2A0225B
:0A10CF0012104BAD077F0112000361
:0C10D900C2A1121085D2A17F050210896F
:020F9400AD07A7
:100F9600E4FCC2A07F05121089ED30E704D2A180DF
:100FA60002C2A17F05121089D2A0ED25E0FD7F05C2
:090FB6001210890CBC08DBC2A07A
:010FBF00220F
:10104B00E4FC121085ED25E0FD30A103430501C240
:0C105B00A07F051210890CBC08E8AF054E
:011067002266
:0B106800120F94121073AF03120F94CC
:10107300121085A2A1E433FDC2A07F05121089AF2F
:011083000567
:011084002249
:10000300C2A0EF24FF92A17F05121089121085C2AE
:08001300A0D2A17F05021089B3
:100F6600E4FD1211557F90120F941210737F031235
:100F76000F941210731211557F91120F9412107361
:0D0F860012104BE4FF1200031210CFAF0554
:010F9300223B
:1010FA00AB071211557F90120F941210737F43128F
:05110A0010680210D97D
:1010B800AB05AA071211557FA0121068AF02120FD4
:0710C800941210730210D90D
:02112200AB0719
:0F112400E4FD1211557FA11210681210CFAF0514
:011133002299
:10006600020427E86480F8E933E83360110460F09D
:10007600ED33EC337009E8FCE9FDEAFEEBFF220400
:1000860060DED3EB9FEA9EE99DE8C2E78CF0C2F7FB
:1000960095F0400CE8CCF8E9CDF9EACEFAEBCFFBC7
:1000A6001203F285D0F05804700320D5B3E804702B
:1000B600075002B2D502043192D5EC0460F7E4CCC5
:1000C600C0E0C398F8603B94186008400DD0E0FB90
:1000D600020409E4FBFAC9FC8028E830E406E4C916
:1000E600FBE4CAFCE830E305E4C9CACBFCE85407E4
:1000F6006010F8C3E913F9EA13FAEB13FBEC13FCEF
:10010600D8F130F52FC3E49CFCEF9BFFEE9AFEED91
:1001160099FDD0E0FBEF4E4D4C701222DB0302043A
:100126002EEC2CFCEF33FFEE33FEED33FDED30E726
:10013600EB020409EF2BFFEE3AFEED39FDD0E0FBB2
:1001460050130BBB0003020431ED13FDEE13FEEF5B
:0801560013FFEC13FC02040985
:10015E00EC4D6011E8497017ED33EC3304600DE49B
:10016E00FCFFFEFD22E933E8330470F80204271287
:10017E0003F258046009E4CC248150062850090289
:10018E00043128400302042EC0E0EB4A7044B980CB
:10019E0006D0E0FB02041DEF4E701CBD8008EBFF85
:1001AE00EAFEE9FD80EBE98DF0A4FEE5F0020247E0
:1001BE00E9CDF9EAFEEBFFEF89F0A4FCE5F0CE897C
:1001CE00F0A42EFFE435F0CD89F0A42DFEE435F039
:1001DE008067EF4E7005BD80D780C3EF8BF0A4AC67
:1001EE00F0EE8BF0A42CFCE435F0F8EF8AF0A42CA2
:1001FE00E5F038FCE433CB8DF0A42CFCE5F03BF8B5
:10020E00EE8AF0A42CFCE5F038F8E433CF89F0A4A4
:10021E002CFCE5F038CF3400CE89F0A42FFFE5F0AA
:10022E003EFEE433C98DF0A42EFEE5F039CD8AF002
:10023E00A42FFFE5F03EFEE43DFD33D0E0FB50077A
:10024E000BBB000F020431EC2CFCEF33FFEE33FE40
:06025E00ED33FD0204096E
:10026400020431EC5D046005E859047003020427BC
:100274001203F2580460F6EC4860F2EC7004FDFEE0
:10028400FF22C860DB2481C85009C398600250066D
:1002940002042E9850CAF582E9294B4A7005AB82B4
:1002A40002041D75F0007C1A7880C3EF9BEE9AED72
:1002B40099400DC3EF9BFFEE9AFEED99FDE842F0E5
:1002C400DC23ACF0D0E0FFD0E0FED0E0FDAB822038
:1002D400E7101BEB60BAEC2CFCEF33FFEE33FEEDC2
:1002E40033FD020409E803F830E705C0F075F000B7
:1002F400EF2FFFEE33FEED33FD40B830E7C280AAA6
:1003040074F8CC6480CCC86480C8F58204604FC3A0
:10031400EB9FF5F0EA9E42F0E99D42F0E89C45F03F
:10032400603C501DE5825FFFE582D313CB5BCBF4C9
:100334002B5582FB50280ABA002409B900200880F2
:100344001DE5825BFBE582D313CF5FCFF4C3132F8C
:100354005582FF50090EBE00050DBD00010CC3EB14
:100364009FF5F0EA9E42F0E99D42F0E89C45F0607A
:0903740007CC4820E701B3EC229C
:10037D0075F020800E75F010800575F0087D007EFB
:10038D00007F003392D530D5031204BEEC334010FC
:10039D00EF33FFEE33FEED33FDEC33FCD5F0ED2204
:0E03AD00E5F0247EA2D513CC92E7CDCEFF2240
:1003BB00EDD2E7CD33EC3392D524814006E4FFFE3A
:1003CB00FDFC22FCE4CFCECDCC24E0501174FF8099
:1003DB00EDC3CC13CCCD13CDCE13CECF13CF047036
:0703EB00F030D5DE0204BE74
:1003F200E9D2E7C933E833F892D5EDD2E7CD33EC51
:0704020033FC5002B2D522C9
:10040900EC30E7100FBF000C0EBE00080DBD000454
:100419000BEB6014A2D5EB13FCED92E7FD2274FF00
:10042900FCFDFEFF22E480F8A2D574FF13FC7D8059
:03043900E480EF6D
:100D140002102BE493A3F8E493A34003F68001F2BA
:100D240008DFF48029E493A3F85407240CC8C333E0
:100D3400C4540F4420C8834004F456800146F6DFAF
:100D4400E4800B0102040810204080900C6AE47EC9
:100D5400019360BCA3FF543F30E509541FFEE493A4
:100D6400A360010ECF54C025E060A840B8E493A36B
:100D7400FAE493A3F8E493A3C8C582C8CAC583CA96
:100D8400F0A3C8C582C8CAC583CADFE9DEE780BE4E
:010D070000EB
:10043C00BB010CE58229F582E5833AF583E0225075
:10044C0006E92582F8E622BBFE06E92582F8E222BF
:0D045C00E58229F582E5833AF583E49322D9
:10046900BC000BBE0029EF8DF084FFADF022E4CC77
:10047900F875F008EF2FFFEE33FEEC33FCEE9DEC40
:10048900984005FCEE9DFE0FD5F0E9E4CEFD22ED86
:10049900F8F5F0EE8420D21CFEADF075F008EF2FD0
:1004A900FFED33FD4007985006D5F0F222C398FDC1
:0504B9000FD5F0EA225E
:100E6800C2D5E830E70FB2D5E4C39BFBE49AFAE4B5
:100E780099F9E498F8EC30E717B2D5120E9E1205EE
:100E880008E4C39BFBE49AFAE499F9E498F8800330
:100E980012050830D50DE4C39FFFE49EFEE49DFDD6
:040EA800E49CFC22A8
:0E04BE00C3E49FFFE49EFEE49DFDE49CFC224F
:1004CC0075F008758200EF2FFFEE33FECD33CDCCE7
:1004DC0033CCC58233C5829BED9AEC99E58298406A
:1004EC000CF582EE9BFEED9AFDEC99FC0FD5F0D647
:1004FC00E4CEFBE4CDFAE4CCF9A88222B800C1B971
:10050C000059BA002DEC8BF084CFCECDFCE5F0CBAE
:10051C00F97818EF2FFFEE33FEED33FDEC33FCEBE7
:10052C0033FB10D703994004EB99FB0FD8E5E4F9A2
:10053C00FA227818EF2FFFEE33FEED33FDEC33FC8F
:10054C00C933C910D7059BE99A4007EC9BFCE99A83
:10055C00F90FD8E0E4C9FAE4CCFB2275F010EF2FC8
:10056C00FFEE33FEED33FDCC33CCC833C810D707C8
:10057C009BEC9AE899400AED9BFDEC9AFCE899F803
:0E058C000FD5F0DAE4CDFBE4CCFAE4C8F92296
:00000001FF
